S01700004C4E383632785F466C6173685F344D422E6D6F7449
S11300003707610779079307AF07BB07BD070000F0
S113001080B50121042000F075F901BDF0B583B06D
S113002015000326324204D004239A1A03271740EA
S113003000E00027CA1B92080192C91B03220A4050
S113004002920400002F0ED068460670210C417005
S1130050210A8170C47004236A463900280000F024
S113006066F9E419ED190198002809D02300032248
S11300700146280000F09AF9019880002D182418F0
S1130080029800280CD068460670210C4170210AA1
S11300908170C47004236A460299280000F047F96D
S11300A0002003B0F0BD80B560206946487006208A
S11300B008700121684600F0BEF9012100A8401C27
S11300C000F0B9F900F00DF901BDF0B583B00E00F0
S11300D00400802109028E4273D3C10BC90380221C
S11300E012028918081A029005032D0E012D19DB3E
S11300F001AF20203870200C7870200AB870FC7092
S11301000620694608700121684600F094F904212C
S113011001A800F090F900F0E4F8802040012418D0
S11301206D1EE6D10298301A45002D0C4004400C97
S11301300105090D491E8941C943C90F000B471820
S1130140BFB2012D1FDB52206946487001AE20204A
S11301503070200C7070200AB070F47068464078DB
S113016030700620694608700121684600F063F982
S1130170042101A800F05FF900F0B3F88020000228
S113018024186D1EE3D1012F19DB3D0001AE202799
S11301903770200C7070200AB070F4700620694625
S11301A008700121684600F046F9042101A800F016
S11301B042F900F096F8F80124186D1EE8D103B056
S11301C0F0BD3005000D401E8041C043C00F310B0F
S11301D00D18ADB2012DF2DB01AE20273770200CD3
S11301E07070200AB070F47006206946087001210E
S11301F0684600F020F9042101A800F01CF900F081
S113020070F8F80124186D1EE8D1D8E7F8B5060097
S11302100F00140019000F4800F05CF98025AD05AB
S1130220012E01D1422000E002202870380C6870B1
S1130230380AA870EF7006206946087001216846E4
S113024000F0F9F8211D280000F0F5F800F049F855
S1130250F1BD000004000020F7B506000D001C00ED
S1130260280A0002A84211D0802149004018401BEE
S11302701746874200D907003A0029003000FFF7EB
S1130280C5FFE419ED190298C01B02900298000200
S1130290000C012811DB69460E70060080277F00E0
S11302A023003A00290068460078FFF7AFFFED19F4
S11302B0E419761EF4D1684606780298C2B2002A80
S11302C004D0230029003000FFF7A0FF002003B072
S11302D0F0BD80B513000A0001000020FFF7BCFF49
S11302E002BD80B5052069464870012300AA521C4E
S11302F00121684600F01BF868460078C007F4D472
S113030001BD000038B505000C00102000F000F914
S1130310012000F001F9200000F07EF9002000F037
S113032045F900F06CF9280000F053F931BDF0B53F
S113033085B007000C0016001D00002000F040F9F5
S1130340002004900390029003200190002000906C
S113035000230022072100F007F9601E80B200F09C
S113036022F9012000F02CF9012000F01FF92800E7
S113037007D035000600287800F04BF96D1C761E76
S1130380F9D100F032F90028FBD0002C09D000F09C
S113039027F90028FBD000F039F938707F1C641E5F
S11303A0F5D100F027F90128FBD03FE0F0B585B086
S11303B00C0016001D000700002000F001F90020C9
S11303C004900390029003200190002000900023E9
S11303D000221F2100F0C8F8601E80B200F0E3F88C
S11303E0012000F0EDF8012000F0E0F82902090AEC
S11303F03006084300F00DF900F0F7F80028FBD0B0
S1130400002C0FD000F0ECF80028FBD000F0FEF830
S1130410010E3970010C7970010AB970F8703F1D32
S1130420641EEFD100F0E6F80128FBD0002000F0B4
S1130430BDF805B0F0BD30B585B005000C00002056
S113044000F0BEF800200490039002900120019077
S11304500020009000230022072100F085F80120ED
S113046000F0A4F8012000F0ABF80C4806E0641E8C
S1130470297881636D1C01688907FCD5002CF6D1AD
S113048000F0B3F80128FBD100F0B4F80128FBD048
S1130490002000F08BF805B030BD0000280020409B
S11304A070B4103A03D378C9103A78C0FBD253071A
S11304B001D318C918C001D508C908C0D20704D38C
S11304C00B880380891C801C002A01D50B780370DB
S11304D070BC70478B0701D18307E1D0124205D06D
S11304E00B78491C0370401C521EF9D17047000060
S11304F080B500F0A9F801BD80B500F0ADF801BDEC
S113050080B500F0ABF801BD80B500F0B4F801BDD2
S113051080B5C046C04601BD80B5002802D000F0B9
S1130520BBF801BD00F0BEF801BD80B500F092F843
S113053001BD80B500F0C0F801BD80B5064800F0EB
S1130540C4F8064800F0C4F8054800F0C7F80548A8
S113055000F0C1F801BD00000005058BFD46072130
S11305600D2C0000B66D0500F4B4059A069C079D99
S1130570089E099F4005844608046146084369466D
S1130580097809030143D802084391020143200278
S11305900843E9010143B0010843390101432148FB
S11305A00160F1BC70472049086070471F4900286A
S11305B0086801D0012210E00122904308607047CE
S11305C01B490A6801239A43C307DB0F13430B60DB
S11305D0704718490A68120C120402430A607047F3
S11305E0154800680107C80F7047134800684107A1
S11305F0C80F704710480168C807C00F7047002033
S11306000E49086070471043086070470C48006842
S113061070470B49086070470A490A68FF239A43E8
S1130620F1E70000000020400400204008002040C2
S11306301000204014002040280020402C002040BE
S113064060002040F000204011480168114A0A402F
S113065002607047164947E0164901E08021C90548
S11306604A680F239A43401E0007000F1043486056
S11306700120086070470F494A68F0239A43401EDE
S11306800006000D034013434B60022008607047CE
S11306907C001040FF7FFFFF1248016820220A43BC
S11306A0026070470F48016820229143016070473F
S11306B010001040000010400F490A6804239A43B8
S11306C0800018401043086070470C490860704768
S11306D00B49086070470B49086070470A49086075
S11306E070470000180000400A6801239A43C307BA
S11306F0DB0F13430B6070473400104014001040AC
S1130700180010409C0010403400104080B50120B7
S1130710FFF70BFF0120FFF7EFFE0220FFF7F0FECB
S11307200420FFF7F1FEFFF7E3FEFFF706FF0020CA
S1130730FFF7FFFE01BD506800210180082282708E
S1130740C1700122027142718271C27102724172DE
S1130750827202614161910281618900C1617047C5
S113076010B50C001000426841690069FFF756FC9F
S113077000202060606010BD10B50C0010004268BD
S11307804169FF2399430069FFF7A3FD002020601E
S113079010BD80B51069526900230B60002A03D094
S11307A01103FFF792FC01BDFFF77DFC01BD80B58D
S11107B0FFF7ACFFFFF72CFC01BD704770474C
S9030000FC
